:020000040800F2
:1000000080060020390200089B06000893060008BD
:10001000970600086D050008350D00080000000077
:10002000000000000000000000000000E9090008D6
:10003000A10500080000000015070008210B0008BA
:10004000530200085302000853020008530200083C
:10005000530200085302000853020008530200082C
:10006000530200085302000853020008530200081C
:10007000530200085302000853020008530200080C
:1000800053020008530200085302000853020008FC
:1000900053020008530200085302000853020008EC
:1000A00053020008530200085302000853020008DC
:1000B00053020008530200085302000853020008CC
:1000C00053020008530200085302000853020008BC
:1000D00053020008B10B0008530200085302000845
:1000E000530200085302000853020008530200089C
:1000F000530200085302000853020008530200088C
:10010000530200085302000853020008530200087B
:10011000530200085302000853020008530200086B
:10012000530200085302000853020008530200085B
:10013000530200085302000853020008530200084B
:10014000530200085302000853020008530200083B
:10015000530200085302000853020008530200082B
:10016000530200085302000853020008530200081B
:10017000530200085302000853020008530200080B
:10018000530200085302000800F002F800F044F89F
:100190000AA090E8000C82448344AAF10107DA45E2
:1001A00001D100F039F8AFF2090EBAE80F0013F0F0
:1001B000010F18BFFB1A43F001031847B00D0000F0
:1001C000D00D0000103A24BF78C878C1FAD8520781
:1001D00024BF30C830C144BF04680C6070470000C1
:1001E0000023002400250026103A28BF78C1FBD840
:1001F000520728BF30C148BF0B607047642900F028
:10020000A780732900F04F81002070471FB500F0D0
:10021000A7FE1FBD10B510BD00F078F91146FFF71D
:10022000F5FF00F047FE00F096F903B4FFF7F2FF88
:1002300003BC00F0D9FD0000094880470948004789
:10024000FEE7FEE7FEE7FEE7FEE7FEE7FEE7FEE786
:10025000FEE7FEE704480549054A064B70470000E3
:10026000250B00088901000880000020800600207E
:100270008002002080020020704700000FB4044973
:1002800010B503AA029800F013F910BC5DF814FB36
:100290001C0000202DE9F0410E460446002020629B
:1002A0002046E168884730B3252805D0D4E90121EC
:1002B0009047206A401CF2E7E16820460027884703
:1002C000050018D0A5F14100192802D820354FF4B7
:1002D00000673246294620462760FFF78FFF40B16E
:1002E000012804D0F61D26F007060836D8E7361D8B
:1002F000D6E72846DAE7206ABDE8F08170B50C46FB
:100300000546012A05D02878800600D5EA69002331
:1003100002E0012305E05B1C934202D2E05C00286E
:10032000F9D1A869E618C01AA861286A1844286299
:100330002846AFF3008004E0D5E9012114F8010B51
:100340009047B442F8D32846AFF3008070BD000058
:100350002DE9F0410646002410687529314616A59E
:1003600010D0AFF30080002802DA404213A507E066
:1003700031688A0701D512A502E0490704D511A505
:10038000012401E0AFF3008000210A2206F12407D6
:1003900009E0B0FBF2FCB0FBF2F302FB1C003030D2
:1003A00078541846491C0028F3D123462A46304683
:1003B000BDE8F04100F00CB8000000002D00000086
:1003C0002B00000020000000704770477047704706
:1003D0002DE9F0470D4699469246044600F124085F
:1003E0000168880604D5E06921F01001216000E071
:1003F0000120A84201DD471B00E00027A1697A190E
:1004000002EB0900081AA0612078C00602D4204639
:10041000AFF30080002608E0D4E901211AF80600B5
:100420009047206A401C761C20624E45F4DB207801
:10043000C0060AD52046AFF3008006E0D4E90121CA
:1004400030209047206A401C2062381EA7F1010727
:10045000F4DC07E0D4E9012118F805009047206A90
:10046000401C2062281EA5F10105F3DC2046AFF3F5
:1004700000802078000602D50220BDE8F087012028
:10048000FBE710B5436913B1AFF3008001E0FFF75C
:1004900035FF012010BD127800F124010A700022FE
:1004A0004A700122EDE711684FF0FF32E9E70000E2
:1004B000074B70B50D467B4400F011F80446284602
:1004C00000F020F810B14FF0FF3070BD204670BD35
:1004D000E309000001694A1C02610878704700B511
:1004E0008FB0CDE901310021059105497944CDE96D
:1004F000031011466846FFF7CDFE0FB000BD0000A7
:10050000E5FFFFFF007B00F080007047754600F0BC
:1005100029F8AE4605006946534620F00700854697
:1005200018B020B5FFF796FEBDE820404FF000065A
:100530004FF000074FF000084FF0000B21F00701CB
:10054000AC46ACE8C009ACE8C009ACE8C009ACE80E
:10055000C0098D4670470446AFF300802046FFF780
:1005600064FE0000004870472000002000BFFEE746
:1005700010B50121402000F0CFF801200649087194
:10058000002088714FF4007008600120C871487124
:10059000024800F006F810BD1000002000180240CC
:1005A0007047F0B50A4600210023002400BF3DE05B
:1005B000012505FA01F3156805EA03049C4234D1CC
:1005C00005684F000326BE40B543056015794E000F
:1005D000B5400668354305601579012D02D01579BF
:1005E000022D16D185684F000326BE40B5438560B5
:1005F00055794E00B54086683543856045680126CB
:100600008E40B5434560456896798E40B6B2354315
:100610004560C5684F000326BE40B543C560D57927
:100620004E00B540C6683543C560491C1029BFD38C
:10063000F0BDF0B5002300244D07ED0E02FA05F3DE
:10064000CE1000F1200555F826504E07F70E0F2664
:10065000BE40B543CF1000F1200646F82750CE101B
:1006600000F1200555F8265045EA0304CE1000F1AC
:10067000200545F82640F0BD0246002013690B40D6
:100680000BB1012000E000207047418370470183D7
:10069000704700BFFEE700BFFEE7704770B500215E
:1006A00000230F22C4781CB3174C246804F4E064C0
:1006B000C4F5E064C4F30721C1F10404E3B20A41C4
:1006C00044789C40E1B28478144021430C07210E09
:1006D0000E4C05786155047804F01F050124AC40E8
:1006E00005786D11AD0005F1E025C5F8004109E080
:1006F000047804F01F050124AC40054D06787611FE
:1007000045F8264070BD00000CED00E000E400E07C
:1007100080E100E07047000029B1064A12680243F8
:10072000044B1A6004E0034A12688243014B1A60CA
:10073000704700003038024029B1064A126802436F
:10074000044B1A6004E0034A12688243014B1A60AA
:100750007047000044380240F0B500210022002418
:10076000022500260223324F3F6807F00C0121B119
:10077000042905D0082937D105E02E4F076036E05F
:100780002D4F076033E02A4F3F1F3F68C7F3805665
:10079000274F3F1F3F6807F03F036EB1264FB7FB5F
:1007A000F3F7DFF88CC0ACF1040CDCF800C0CCF33C
:1007B000881C07FB0CF40CE01E4FB7FBF3F7DFF8C7
:1007C00070C0ACF1040CDCF800C0CCF3881C07FB53
:1007D0000CF4174F3F1F3F68C7F301477F1C7D0094
:1007E000B4FBF5F7076002E0124F076000BF00BFDF
:1007F0000F4F3F6807F0F0010909104F7A5C076856
:10080000D74047600A4F3F6807F4E051890A0B4F11
:100810007A5C4768D7408760054F3F6807F46041BE
:10082000490B064F7A5C4768D740C760F0BD0000AF
:10083000083802400024F40000127A000000002072
:1008400070B5044600250120334908713348FFF78D
:10085000A8FE4FF400713148FFF717FF142000F095
:10086000C5FA4FF400712D48FFF711FF1E2000F06C
:10087000F1FA0020284908712848FFF792FE00BFCE
:100880004FF400712548FFF7F7FE0128F8D008E083
:100890006D1C112D02DD4FF0FF3070BD052000F002
:1008A000D9FA4FF400711D48FFF7E6FE0028EFD09B
:1008B00000254FF400711948FFF7DEFE012811D121
:1008C00008E06D1C6E2D02DD4FF0FF30E5E70120E2
:1008D00000F0C0FA4FF400711048FFF7CDFE012878
:1008E000EFD002E04FF0FF30D7E7204600F018F8D5
:1008F00010B16FF00100D0E7207861780844A1784A
:100900000844E17808442179884201D10020C4E7F5
:100910006FF00200C1E70000100000200018024044
:100920002DE9F04105460027002400264FF4007110
:100930002548FFF7A1FE002843D100BF3DE000207D
:100940002855002736E009E0761C322E03DD4FF0F3
:10095000FF30BDE8F081012000F07CFA4FF4007117
:100960001948FFF789FE0028EED000261E2000F06F
:1009700071FA4FF400711448FFF77EFE012806D18A
:10098000285DC7F10702012191400843285508E07E
:10099000761C462E02DD6FF00100DAE7012000F040
:1009A00059FA4FF400710848FFF766FE0128EFD0AE
:1009B00000267F1C082FC6DB641C052CBFDB002033
:1009C000C7E76FF00200C4E70018024030B500220C
:1009D00004E08B88DDB21346521CC5540B8803F02B
:1009E0002003002BF5D130BD7047000070B50446E0
:1009F0000D4600BF288800F080000028FAD021466C
:100A000001A0FFF73BFC70BD257300000CB5002072
:100A1000019000903448006840F48030324908600A
:100A200000BF3148006800F4003000900198401C7D
:100A30000190009818B90198B0F5A04FF1D12A485B
:100A4000006800F4003010B10120009001E00020A7
:100A500000900098012846D123484030006840F0BB
:100A600080502149403108602048006840F44040EF
:100A70001E4908601C48083000681B49083108609E
:100A80000846006840F4004008600846006840F4EA
:100A9000A05008601648091F0860081F006840F051
:100AA0008070091F086000BF0F48006800F00070E8
:100AB0000028F9D040F205700E4908600A48083055
:100AC000006820F003000849083108600846006803
:100AD00040F00200086000BF03480830006800F0E2
:100AE0000C000828F8D10CBD00380240007000400E
:100AF00008544007003C0240042808D14FF0E02190
:100B0000096941F004014FF0E022116107E04FF064
:100B1000E021096921F004014FF0E02211617047E2
:100B20007047000010B51548006840F47000134984
:100B300008601348006840F0010011490860002077
:100B40000F49083108600E4800680E4908400C49FA
:100B500008600D48091D0860081F006820F4802007
:100B6000091F0860002006490C310860FFF74EFF9E
:100B70004FF0006001498039086010BD88ED00E049
:100B800000380240FFFFF6FE1030002410B56FF071
:100B90000400FFF7B1FF15200349087045F2082053
:100BA0000249088010BD0000180000201A00002033
:100BB0003EB500246D462021094800F01FF870B1B1
:100BC00000BF02E000202855641C0A2CFADB04490F
:100BD0002846FFF7FBFE02492846FFF707FF3EBD08
:100BE0000010014021B1828942F40052828104E068
:100BF00082894DF6FF731A408281704702460020B9
:100C0000B1F5007F00D100BF13880B400BB101206C
:100C100000E000207047F0B50346002400260025C0
:100C2000002040F66A17B94200D100BF1846C1F350
:100C3000421401F01F06012707FA06F5012C01D125
:100C40000C3004E0022C01D1103000E014301AB155
:100C500007682F43076002E00768AF430760F0BDF5
:100C60002DE9FF4705460E460024A14600BFA046D9
:100C7000B08900B100BF2C8A24F44054F0880443AA
:100C80002C82AC8941F20C608443B08831890843DE
:100C9000718908430443AC81AC8A24F44074B08960
:100CA0000443AC826846FFF757FD2048854202D0D6
:100CB0001F48854202D1DDF80C9001E0DDF8089074
:100CC000A88900F4004040B109EBC90000EB09100D
:100CD00031684900B0FBF1F707E009EBC90000EB10
:100CE000091031688900B0FBF1F76420B7FBF0F020
:100CF00004012009642101FB1078A88900F4004058
:100D000040B1322000EBC800B0FBF1F000F007006A
:100D1000044308E0322000EB08106421B0FBF1F03E
:100D200000F00F0004432C81BDE8FF870010014054
:100D30000014014000BFFEE710B588B00446012151
:100D40001020FFF7F9FC01210846FFF7E5FC072218
:100D500009212348FFF76DFC07220A212048FFF7ED
:100D600068FC02208DF81C0000208DF81E004FF456
:100D7000C060069001208DF81F0002208DF81D0034
:100D800006A91748FFF70DFC02940020ADF81400E7
:100D90000C20ADF812000020ADF81000ADF80E00E8
:100DA000ADF80C0002A90F48FFF75AFF012240F2EC
:100DB00025510C48FFF72FFF25208DF80400012056
:100DC0008DF8070000208DF805008DF8060001A8B9
:100DD000FFF764FC01210348FFF704FF08B010BDD2
:100DE000000002400010014000BF70470021104A7F
:100DF000128842434FF0E0235A6100229A611A465A
:100E0000126942F001021A6100BF4FF0E02211693D
:100E100001F48032002AF8D04FF0E022126922F06B
:100E200001024FF0E0231A6100229A61704700002E
:100E30001A00002010B5044608E04FF4FA70FFF7DE
:100E4000D5FF4FF4FA70FFF7D1FF641E002CF4D1E8
:100E500010BD00000021104A127842434FF0E023F9
:100E60005A6100229A611A46126942F001021A611F
:100E700000BF4FF0E022116901F48032002AF8D05F
:100E80004FF0E022126922F001024FF0E0231A61D4
:100E900000229A61704700001800002000BF044A39
:100EA000128802F08002002AF9D0014B9880704726
:100EB000001001400EB5002001900290FFF766FE81
:100EC000FFF756FB4FF4E130FFF736FF0DA0FFF7B9
:100ED000D5F916E001A8FFF7B3FC60B99DF807004B
:100EE00000909DF806309DF805209DF804100EA096
:100EF000FFF7C4F902E016A0FFF7C0F90220FFF7E0
:100F000099FFE7E7B3F5CABCBBAFB3C9B9A6A3A1C4
:100F1000BFAACABCBCE0B2E2CAAAB6C8BCB0CEC2C4
:100F2000B6C8A3A10D0A0000B5B1C7B0CAAAB6C819
:100F30003A25642E256425255248202020CEC2B6AD
:100F4000C83A25642E2564A1E60D0A0D0A000000AA
:100F5000BCE0B2E2B3F6B4EDA3A10D0A00000000BC
:100F60004FF04070E1EE100A704700008C0F00084F
:100F70000000002020000000C4010008AC0F0008A1
:100F80002000002060060000E001000800000000D2
:100F9000010203040102030406070809000000001F
:0C0FA00000000000000000000000000045
:040000050800018965
:00000001FF
